{
  "_format": "hh-sol-artifact-1",
  "contractName": "Twitter",
  "sourceName": "contracts/twitter-q2.sol",
  "abi": [
    {
      "inputs": [
        {
          "internalType": "address",
          "name": "_user",
          "type": "address"
        }
      ],
      "name": "followUser",
      "outputs": [],
      "stateMutability": "nonpayable",
      "type": "function"
    },
    {
      "inputs": [
        {
          "internalType": "address",
          "name": "_user",
          "type": "address"
        }
      ],
      "name": "getConversationWithUser",
      "outputs": [
        {
          "components": [
            {
              "internalType": "uint256",
              "name": "messageId",
              "type": "uint256"
            },
            {
              "internalType": "string",
              "name": "content",
              "type": "string"
            },
            {
              "internalType": "address",
              "name": "from",
              "type": "address"
            },
            {
              "internalType": "address",
              "name": "to",
              "type": "address"
            }
          ],
          "internalType": "struct Twitter.Message[]",
          "name": "",
          "type": "tuple[]"
        }
      ],
      "stateMutability": "view",
      "type": "function"
    },
    {
      "inputs": [],
      "name": "getFollowers",
      "outputs": [
        {
          "internalType": "address[]",
          "name": "",
          "type": "address[]"
        }
      ],
      "stateMutability": "view",
      "type": "function"
    },
    {
      "inputs": [],
      "name": "getFollowing",
      "outputs": [
        {
          "internalType": "address[]",
          "name": "",
          "type": "address[]"
        }
      ],
      "stateMutability": "view",
      "type": "function"
    },
    {
      "inputs": [],
      "name": "getTweetFeed",
      "outputs": [
        {
          "components": [
            {
              "internalType": "uint256",
              "name": "tweetId",
              "type": "uint256"
            },
            {
              "internalType": "address",
              "name": "author",
              "type": "address"
            },
            {
              "internalType": "string",
              "name": "content",
              "type": "string"
            },
            {
              "internalType": "uint256",
              "name": "createdAt",
              "type": "uint256"
            }
          ],
          "internalType": "struct Twitter.Tweet[]",
          "name": "",
          "type": "tuple[]"
        }
      ],
      "stateMutability": "view",
      "type": "function"
    },
    {
      "inputs": [],
      "name": "nextMessageId",
      "outputs": [
        {
          "internalType": "uint256",
          "name": "",
          "type": "uint256"
        }
      ],
      "stateMutability": "view",
      "type": "function"
    },
    {
      "inputs": [],
      "name": "nextTweetId",
      "outputs": [
        {
          "internalType": "uint256",
          "name": "",
          "type": "uint256"
        }
      ],
      "stateMutability": "view",
      "type": "function"
    },
    {
      "inputs": [
        {
          "internalType": "string",
          "name": "_content",
          "type": "string"
        }
      ],
      "name": "postTweet",
      "outputs": [],
      "stateMutability": "nonpayable",
      "type": "function"
    },
    {
      "inputs": [
        {
          "internalType": "address",
          "name": "_user",
          "type": "address"
        }
      ],
      "name": "readTweets",
      "outputs": [
        {
          "components": [
            {
              "internalType": "uint256",
              "name": "tweetId",
              "type": "uint256"
            },
            {
              "internalType": "address",
              "name": "author",
              "type": "address"
            },
            {
              "internalType": "string",
              "name": "content",
              "type": "string"
            },
            {
              "internalType": "uint256",
              "name": "createdAt",
              "type": "uint256"
            }
          ],
          "internalType": "struct Twitter.Tweet[]",
          "name": "",
          "type": "tuple[]"
        }
      ],
      "stateMutability": "view",
      "type": "function"
    },
    {
      "inputs": [
        {
          "internalType": "string",
          "name": "_name",
          "type": "string"
        }
      ],
      "name": "registerAccount",
      "outputs": [],
      "stateMutability": "nonpayable",
      "type": "function"
    },
    {
      "inputs": [
        {
          "internalType": "address",
          "name": "_recipient",
          "type": "address"
        },
        {
          "internalType": "string",
          "name": "_content",
          "type": "string"
        }
      ],
      "name": "sendMessage",
      "outputs": [],
      "stateMutability": "nonpayable",
      "type": "function"
    },
    {
      "inputs": [
        {
          "internalType": "uint256",
          "name": "",
          "type": "uint256"
        }
      ],
      "name": "tweets",
      "outputs": [
        {
          "internalType": "uint256",
          "name": "tweetId",
          "type": "uint256"
        },
        {
          "internalType": "address",
          "name": "author",
          "type": "address"
        },
        {
          "internalType": "string",
          "name": "content",
          "type": "string"
        },
        {
          "internalType": "uint256",
          "name": "createdAt",
          "type": "uint256"
        }
      ],
      "stateMutability": "view",
      "type": "function"
    },
    {
      "inputs": [
        {
          "internalType": "address",
          "name": "",
          "type": "address"
        }
      ],
      "name": "users",
      "outputs": [
        {
          "internalType": "address",
          "name": "wallet",
          "type": "address"
        },
        {
          "internalType": "string",
          "name": "name",
          "type": "string"
        }
      ],
      "stateMutability": "view",
      "type": "function"
    }
  ],
  "bytecode": "0x608060405234801561001057600080fd5b50612129806100206000396000f3fe608060405234801561001057600080fd5b50600436106100cf5760003560e01c80638076e02b1161008c578063bff6de2011610066578063bff6de2014610215578063de6f24bb14610231578063e8d857b01461024d578063eefbf17e14610280576100cf565b80638076e02b146101aa578063a70806f7146101c8578063a87430ba146101e4576100cf565b80630cbc3dc4146100d45780630d79f561146100f057806323f147021461010e578063495b8c291461012c57806371c85b8d1461014a57806375d92f531461017a575b600080fd5b6100ee60048036038101906100e9919061166e565b61029e565b005b6100f861054f565b60405161010591906117ab565b60405180910390f35b61011661061c565b60405161012391906117ab565b60405180910390f35b6101346106e9565b60405161014191906119a4565b60405180910390f35b610164600480360381019061015f91906119f2565b6108a5565b60405161017191906119a4565b60405180910390f35b610194600480360381019061018f91906119f2565b610b10565b6040516101a19190611b44565b60405180910390f35b6101b2610d35565b6040516101bf9190611b75565b60405180910390f35b6101e260048036038101906101dd91906119f2565b610d3b565b005b6101fe60048036038101906101f991906119f2565b610e82565b60405161020c929190611be9565b60405180910390f35b61022f600480360381019061022a9190611d49565b610f4e565b005b61024b60048036038101906102469190611d92565b611035565b005b61026760048036038101906102629190611e1e565b6113e2565b6040516102779493929190611e4b565b60405180910390f35b6102886114ba565b6040516102959190611b75565b60405180910390f35b336000604051806080016040528060025481526020013373ffffffffffffffffffffffffffffffffffffffff16815260200185858080601f016020809104026020016040519081016040528093929190818152602001838380828437600081840152601f19601f820116905080830192505050505050508152602001428152509050806001600060025481526020019081526020016000206000820151816000015560208201518160010160006101000a81548173ffffffffffffffffffffffffffffffffffffffff021916908373ffffffffffffffffffffffffffffffffffffffff16021790555060408201518160020190805190602001906103a39291906114c0565b50606082015181600301559050506000803373ffffffffffffffffffffffffffffffffffffffff1673ffffffffffffffffffffffffffffffffffffffff168152602001908152602001600020600201600254908060018154018082558091505060019003906000526020600020016000909190919091505560016002600082825461042e9190611ec6565b925050819055505060008060008373ffffffffffffffffffffffffffffffffffffffff1673ffffffffffffffffffffffffffffffffffffffff168152602001908152602001600020600101805461048490611f4b565b80601f01602080910402602001604051908101604052809291908181526020018280546104b090611f4b565b80156104fd5780601f106104d2576101008083540402835291602001916104fd565b820191906000526020600020905b8154815290600101906020018083116104e057829003601f168201915b50505050509050600081511415610549576040517f08c379a000000000000000000000000000000000000000000000000000000000815260040161054090611fef565b60405180910390fd5b50505050565b60606000803373ffffffffffffffffffffffffffffffffffffffff1673ffffffffffffffffffffffffffffffffffffffff16815260200190815260200160002060040180548060200260200160405190810160405280929190818152602001828054801561061257602002820191906000526020600020905b8160009054906101000a900473ffffffffffffffffffffffffffffffffffffffff1673ffffffffffffffffffffffffffffffffffffffff16815260200190600101908083116105c8575b5050505050905090565b60606000803373ffffffffffffffffffffffffffffffffffffffff1673ffffffffffffffffffffffffffffffffffffffff1681526020019081526020016000206003018054806020026020016040519081016040528092919081815260200182805480156106df57602002820191906000526020600020905b8160009054906101000a900473ffffffffffffffffffffffffffffffffffffffff1673ffffffffffffffffffffffffffffffffffffffff1681526020019060010190808311610695575b5050505050905090565b6060600060025467ffffffffffffffff81111561070957610708611c1e565b5b60405190808252806020026020018201604052801561074257816020015b61072f611546565b8152602001906001900390816107275790505b50905060005b60025481101561089d5760016000828152602001908152602001600020604051806080016040529081600082015481526020016001820160009054906101000a900473ffffffffffffffffffffffffffffffffffffffff1673ffffffffffffffffffffffffffffffffffffffff1673ffffffffffffffffffffffffffffffffffffffff1681526020016002820180546107e090611f4b565b80601f016020809104026020016040519081016040528092919081815260200182805461080c90611f4b565b80156108595780601f1061082e57610100808354040283529160200191610859565b820191906000526020600020905b81548152906001019060200180831161083c57829003601f168201915b5050505050815260200160038201548152505082828151811061087f5761087e61200f565b5b602002602001018190525080806108959061203e565b915050610748565b508091505090565b606060008060008473ffffffffffffffffffffffffffffffffffffffff1673ffffffffffffffffffffffffffffffffffffffff16815260200190815260200160002060020180548060200260200160405190810160405280929190818152602001828054801561093457602002820191906000526020600020905b815481526020019060010190808311610920575b505050505090506000815167ffffffffffffffff81111561095857610957611c1e565b5b60405190808252806020026020018201604052801561099157816020015b61097e611546565b8152602001906001900390816109765790505b50905060005b8251811015610b0557600160008483815181106109b7576109b661200f565b5b60200260200101518152602001908152602001600020604051806080016040529081600082015481526020016001820160009054906101000a900473ffffffffffffffffffffffffffffffffffffffff1673ffffffffffffffffffffffffffffffffffffffff1673ffffffffffffffffffffffffffffffffffffffff168152602001600282018054610a4890611f4b565b80601f0160208091040260200160405190810160405280929190818152602001828054610a7490611f4b565b8015610ac15780601f10610a9657610100808354040283529160200191610ac1565b820191906000526020600020905b815481529060010190602001808311610aa457829003601f168201915b50505050508152602001600382015481525050828281518110610ae757610ae661200f565b5b60200260200101819052508080610afd9061203e565b915050610997565b508092505050919050565b60606000803373ffffffffffffffffffffffffffffffffffffffff1673ffffffffffffffffffffffffffffffffffffffff16815260200190815260200160002060050160008373ffffffffffffffffffffffffffffffffffffffff1673ffffffffffffffffffffffffffffffffffffffff168152602001908152602001600020805480602002602001604051908101604052809291908181526020016000905b82821015610d2a578382906000526020600020906004020160405180608001604052908160008201548152602001600182018054610bed90611f4b565b80601f0160208091040260200160405190810160405280929190818152602001828054610c1990611f4b565b8015610c665780601f10610c3b57610100808354040283529160200191610c66565b820191906000526020600020905b815481529060010190602001808311610c4957829003601f168201915b505050505081526020016002820160009054906101000a900473ffffffffffffffffffffffffffffffffffffffff1673ffffffffffffffffffffffffffffffffffffffff1673ffffffffffffffffffffffffffffffffffffffff1681526020016003820160009054906101000a900473ffffffffffffffffffffffffffffffffffffffff1673ffffffffffffffffffffffffffffffffffffffff1673ffffffffffffffffffffffffffffffffffffffff168152505081526020019060010190610bb0565b505050509050919050565b60025481565b6000803373ffffffffffffffffffffffffffffffffffffffff1673ffffffffffffffffffffffffffffffffffffffff168152602001908152602001600020600301819080600181540180825580915050600190039060005260206000200160009091909190916101000a81548173ffffffffffffffffffffffffffffffffffffffff021916908373ffffffffffffffffffffffffffffffffffffffff1602179055506000808273ffffffffffffffffffffffffffffffffffffffff1673ffffffffffffffffffffffffffffffffffffffff168152602001908152602001600020600401339080600181540180825580915050600190039060005260206000200160009091909190916101000a81548173ffffffffffffffffffffffffffffffffffffffff021916908373ffffffffffffffffffffffffffffffffffffffff16021790555050565b60006020528060005260406000206000915090508060000160009054906101000a900473ffffffffffffffffffffffffffffffffffffffff1690806001018054610ecb90611f4b565b80601f0160208091040260200160405190810160405280929190818152602001828054610ef790611f4b565b8015610f445780601f10610f1957610100808354040283529160200191610f44565b820191906000526020600020905b815481529060010190602001808311610f2757829003601f168201915b5050505050905082565b600081511415610f93576040517f08c379a0000000000000000000000000000000000000000000000000000000008152600401610f8a906120d3565b60405180910390fd5b60008060003373ffffffffffffffffffffffffffffffffffffffff1673ffffffffffffffffffffffffffffffffffffffff1681526020019081526020016000209050338160000160006101000a81548173ffffffffffffffffffffffffffffffffffffffff021916908373ffffffffffffffffffffffffffffffffffffffff160217905550818160010190805190602001906110309291906114c0565b505050565b61103d611584565b60035481600001818152505082828080601f016020809104026020016040519081016040528093929190818152602001838380828437600081840152601f19601f82011690508083019250505050505050816020018190525033816040019073ffffffffffffffffffffffffffffffffffffffff16908173ffffffffffffffffffffffffffffffffffffffff168152505083816060019073ffffffffffffffffffffffffffffffffffffffff16908173ffffffffffffffffffffffffffffffffffffffff16815250506000803373ffffffffffffffffffffffffffffffffffffffff1673ffffffffffffffffffffffffffffffffffffffff16815260200190815260200160002060050160008573ffffffffffffffffffffffffffffffffffffffff1673ffffffffffffffffffffffffffffffffffffffff1681526020019081526020016000208190806001815401808255809150506001900390600052602060002090600402016000909190919091506000820151816000015560208201518160010190805190602001906111d49291906114c0565b5060408201518160020160006101000a81548173ffffffffffffffffffffffffffffffffffffffff021916908373ffffffffffffffffffffffffffffffffffffffff16021790555060608201518160030160006101000a81548173ffffffffffffffffffffffffffffffffffffffff021916908373ffffffffffffffffffffffffffffffffffffffff16021790555050506000808573ffffffffffffffffffffffffffffffffffffffff1673ffffffffffffffffffffffffffffffffffffffff16815260200190815260200160002060050160003373ffffffffffffffffffffffffffffffffffffffff1673ffffffffffffffffffffffffffffffffffffffff1681526020019081526020016000208190806001815401808255809150506001900390600052602060002090600402016000909190919091506000820151816000015560208201518160010190805190602001906113339291906114c0565b5060408201518160020160006101000a81548173ffffffffffffffffffffffffffffffffffffffff021916908373ffffffffffffffffffffffffffffffffffffffff16021790555060608201518160030160006101000a81548173ffffffffffffffffffffffffffffffffffffffff021916908373ffffffffffffffffffffffffffffffffffffffff1602179055505050600360008154809291906113d79061203e565b919050555050505050565b60016020528060005260406000206000915090508060000154908060010160009054906101000a900473ffffffffffffffffffffffffffffffffffffffff169080600201805461143190611f4b565b80601f016020809104026020016040519081016040528092919081815260200182805461145d90611f4b565b80156114aa5780601f1061147f576101008083540402835291602001916114aa565b820191906000526020600020905b81548152906001019060200180831161148d57829003601f168201915b5050505050908060030154905084565b60035481565b8280546114cc90611f4b565b90600052602060002090601f0160209004810192826114ee5760008555611535565b82601f1061150757805160ff1916838001178555611535565b82800160010185558215611535579182015b82811115611534578251825591602001919060010190611519565b5b50905061154291906115d8565b5090565b604051806080016040528060008152602001600073ffffffffffffffffffffffffffffffffffffffff16815260200160608152602001600081525090565b60405180608001604052806000815260200160608152602001600073ffffffffffffffffffffffffffffffffffffffff168152602001600073ffffffffffffffffffffffffffffffffffffffff1681525090565b5b808211156115f15760008160009055506001016115d9565b5090565b6000604051905090565b600080fd5b600080fd5b600080fd5b600080fd5b600080fd5b60008083601f84011261162e5761162d611609565b5b8235905067ffffffffffffffff81111561164b5761164a61160e565b5b60208301915083600182028301111561166757611666611613565b5b9250929050565b60008060208385031215611685576116846115ff565b5b600083013567ffffffffffffffff8111156116a3576116a2611604565b5b6116af85828601611618565b92509250509250929050565b600081519050919050565b600082825260208201905092915050565b6000819050602082019050919050565b600073ffffffffffffffffffffffffffffffffffffffff82169050919050565b6000611712826116e7565b9050919050565b61172281611707565b82525050565b60006117348383611719565b60208301905092915050565b6000602082019050919050565b6000611758826116bb565b61176281856116c6565b935061176d836116d7565b8060005b8381101561179e5781516117858882611728565b975061179083611740565b925050600181019050611771565b5085935050505092915050565b600060208201905081810360008301526117c5818461174d565b905092915050565b600081519050919050565b600082825260208201905092915050565b6000819050602082019050919050565b6000819050919050565b61180c816117f9565b82525050565b600081519050919050565b600082825260208201905092915050565b60005b8381101561184c578082015181840152602081019050611831565b8381111561185b576000848401525b50505050565b6000601f19601f8301169050919050565b600061187d82611812565b611887818561181d565b935061189781856020860161182e565b6118a081611861565b840191505092915050565b60006080830160008301516118c36000860182611803565b5060208301516118d66020860182611719565b50604083015184820360408601526118ee8282611872565b91505060608301516119036060860182611803565b508091505092915050565b600061191a83836118ab565b905092915050565b6000602082019050919050565b600061193a826117cd565b61194481856117d8565b935083602082028501611956856117e9565b8060005b858110156119925784840389528151611973858261190e565b945061197e83611922565b925060208a0199505060018101905061195a565b50829750879550505050505092915050565b600060208201905081810360008301526119be818461192f565b905092915050565b6119cf81611707565b81146119da57600080fd5b50565b6000813590506119ec816119c6565b92915050565b600060208284031215611a0857611a076115ff565b5b6000611a16848285016119dd565b91505092915050565b600081519050919050565b600082825260208201905092915050565b6000819050602082019050919050565b6000608083016000830151611a636000860182611803565b5060208301518482036020860152611a7b8282611872565b9150506040830151611a906040860182611719565b506060830151611aa36060860182611719565b508091505092915050565b6000611aba8383611a4b565b905092915050565b6000602082019050919050565b6000611ada82611a1f565b611ae48185611a2a565b935083602082028501611af685611a3b565b8060005b85811015611b325784840389528151611b138582611aae565b9450611b1e83611ac2565b925060208a01995050600181019050611afa565b50829750879550505050505092915050565b60006020820190508181036000830152611b5e8184611acf565b905092915050565b611b6f816117f9565b82525050565b6000602082019050611b8a6000830184611b66565b92915050565b611b9981611707565b82525050565b600082825260208201905092915050565b6000611bbb82611812565b611bc58185611b9f565b9350611bd581856020860161182e565b611bde81611861565b840191505092915050565b6000604082019050611bfe6000830185611b90565b8181036020830152611c108184611bb0565b90509392505050565b600080fd5b7f4e487b7100000000000000000000000000000000000000000000000000000000600052604160045260246000fd5b611c5682611861565b810181811067ffffffffffffffff82111715611c7557611c74611c1e565b5b80604052505050565b6000611c886115f5565b9050611c948282611c4d565b919050565b600067ffffffffffffffff821115611cb457611cb3611c1e565b5b611cbd82611861565b9050602081019050919050565b82818337600083830152505050565b6000611cec611ce784611c99565b611c7e565b905082815260208101848484011115611d0857611d07611c19565b5b611d13848285611cca565b509392505050565b600082601f830112611d3057611d2f611609565b5b8135611d40848260208601611cd9565b91505092915050565b600060208284031215611d5f57611d5e6115ff565b5b600082013567ffffffffffffffff811115611d7d57611d7c611604565b5b611d8984828501611d1b565b91505092915050565b600080600060408486031215611dab57611daa6115ff565b5b6000611db9868287016119dd565b935050602084013567ffffffffffffffff811115611dda57611dd9611604565b5b611de686828701611618565b92509250509250925092565b611dfb816117f9565b8114611e0657600080fd5b50565b600081359050611e1881611df2565b92915050565b600060208284031215611e3457611e336115ff565b5b6000611e4284828501611e09565b91505092915050565b6000608082019050611e606000830187611b66565b611e6d6020830186611b90565b8181036040830152611e7f8185611bb0565b9050611e8e6060830184611b66565b95945050505050565b7f4e487b7100000000000000000000000000000000000000000000000000000000600052601160045260246000fd5b6000611ed1826117f9565b9150611edc836117f9565b9250827fffffffffffffffffffffffffffffffffffffffffffffffffffffffffffffffff03821115611f1157611f10611e97565b5b828201905092915050565b7f4e487b7100000000000000000000000000000000000000000000000000000000600052602260045260246000fd5b60006002820490506001821680611f6357607f821691505b60208210811415611f7757611f76611f1c565b5b50919050565b7f546869732077616c6c657420646f6573206e6f742062656c6f6e6720746f206160008201527f6e79206163636f756e742e000000000000000000000000000000000000000000602082015250565b6000611fd9602b83611b9f565b9150611fe482611f7d565b604082019050919050565b6000602082019050818103600083015261200881611fcc565b9050919050565b7f4e487b7100000000000000000000000000000000000000000000000000000000600052603260045260246000fd5b6000612049826117f9565b91507fffffffffffffffffffffffffffffffffffffffffffffffffffffffffffffffff82141561207c5761207b611e97565b5b600182019050919050565b7f4e616d652063616e6e6f7420626520616e20656d70747920737472696e670000600082015250565b60006120bd601e83611b9f565b91506120c882612087565b602082019050919050565b600060208201905081810360008301526120ec816120b0565b905091905056fea2646970667358221220ebccc71c994c7cf314a953f8f6058f3505caf7ed2d6a709af93f9319234d31a064736f6c63430008090033",
  "linkReferences": {},
  "deployedLinkReferences": {}
}